:020000040800F2
:1000000000000120050300080B030008110300088D
:1000100033030008390300085B03000800000000F8
:100020000000000000000000000000007D03000848
:100030008303000800000000890300088F03000804
:10004000AD030008AD030008AD030008AD030008D0
:10005000AD030008AD030008AD030008AD030008C0
:10006000AD030008AD030008AD030008AD030008B0
:10007000AD030008AD030008AD030008AD030008A0
:10008000AD030008AD030008AD0300080000000048
:10009000000000000000000000000000AD030008A8
:1000A000AD030008AD030008AD030008AD03000870
:1000B000AD030008AD030008AD030008AD03000860
:1000C000AD030008AD030008AD030008AD03000850
:1000D000AD030008AD030008AD03000800000000F8
:1000E000AD030008AD030008AD03000800000000E8
:1000F000000000000000000000000000AD03000848
:1001000000000000AD030008AD030008AD030008C7
:1001100000000000000000000000000000000000DF
:10012000AD030008AD030008AD030008AD030008EF
:10013000AD03000800000000000000000000000007
:10014000000000000000000000000000AD030008F7
:10015000AD030008AD030008AD030008AD030008BF
:10016000AD030008AD03000800000000000000001F
:10017000000000000000000000000000000000007F
:1001800000000000AD0300080000000000000000B7
:10019000AD03000880B596B000AF00F037F94F4BC3
:1001A0007B6524E07B6D1A1D7A651B683B647B6D63
:1001B0001A1D7A651B68FB637B6D1A1D7A651B68C7
:1001C000BB633B6C7B63FB6B3B63BB6BFB623B6B5F
:1001D000BB6207E07A6B131D7B63BB6A191DB962B2
:1001E00012681A60FA6ABB6A9A42F3D800BF7B6D44
:1001F0003B4A9342D6D33B4B3B651AE03B6D1A1DFD
:100200003A651B68BB643B6D1A1D3A651B687B64CD
:10021000BB6C7B627B6C3B627B6AFB6104E0FB69CD
:100220001A1DFA6100221A603A6AFB699A42F6D8EE
:1002300000BF3B6D2C4A9342E0D300F0F5F83A1D25
:1002400007F108031146184600F0CEF8274A284B5C
:10025000D31A9B103B610023FB6007E0244AFB6834
:1002600052F823309847FB680133FB603A69FB681A
:100270009A42F3DC1F4A204BD31A9B103B610023A8
:10028000FB6007E01C4AFB6852F823309847FB6884
:100290000133FB603A69FB689A42F3DC00BFBB683C
:1002A0007A681146184600F06BF9F864134A144B4B
:1002B000D31A9B10BB61BB697B6108E07B69013B82
:1002C0000F4A52F8233098477B69013B7B617B6979
:1002D000002BF3DC00BFF86C00F080F8B4030008DA
:1002E000CC030008CC030008DC030008DC03000892
:1002F000DC030008DC030008DC030008DC03000862
:10030000DC0300082548004700BF80B400AFFEE7CB
:100310001EF0040F0CBFEFF30880EFF30980714665
:100320001F4A104700BF80B483B000AF78603960C7
:10033000FEE780B400AFFEE71EF0040F0CBFEFF342
:100340000880EFF309807146164A104700BF80B459
:1003500083B000AF78603960FEE71EF0040F0CBF79
:10036000EFF30880EFF3098071460F4A104700BF92
:1003700080B483B000AF78603960FEE780B400AF2E
:10038000FEE780B400AFFEE780B400AFFEE780B4C4
:1003900000AF00BFBD4680BC70470000950100085B
:1003A000270300084F0300087103000880B400AF62
:0203B000FEE766
:1003B4000C0D0008000000200C0000200C0D0008AB
:1003C40000000010000000100C00002010000020AD
:0803D400000000100000001001
:1003DC0080B582B000AF786000F03CF880B483B098
:1003EC0000AF786039607B6801221A603B68034A71
:1003FC001A6000BF0C37BD4680BC7047000000205F
:10040C0080B500AF00F02AF8024B034A9A6000BF97
:10041C0080BD00BF00ED00E00000000880B500AF1B
:10042C0000F028F800BF80BD80B400AFBFF34F8F41
:10043C0000BF064BDB6803F4E0620449044B134332
:10044C00CB60BFF34F8F00BF00BFFDE700ED00E0B6
:10045C000400FA0580B500AFFFF7E6FF80B400AFEB
:10046C00034B4FF000629A6000BFBD4680BC7047E2
:10047C0000ED00E080B487B000AF00233B610023A7
:10048C007B610223FB600023BB6002237B60344B47
:10049C009B6803F00C033B613B69082B11D03B6953
:1004AC00082B44D83B69002B03D03B69042B04D0A8
:1004BC003DE02C4B2C4A1A603DE02A4B2B4A1A602B
:1004CC0039E0274B5B689B0D03F00103BB60244BA9
:1004DC005B6803F03F037B60BB68002B0CD0234AA6
:1004EC007B68B2FBF3F31E4A52689209C2F308020E
:1004FC0002FB03F37B610BE01B4A7B68B2FBF3F35B
:10050C00174A52689209C2F3080202FB03F37B619B
:10051C00134B5B681B0C03F0030301335B00FB60A4
:10052C007A69FB68B2FBF3F30E4A136003E00D4BE0
:10053C000D4A1A6000BF0A4B9B681B0903F00F039E
:10054C000B4AD35C3B61074B1A683B6922FA03F3F5
:10055C00044A136000BF1C37BD4680BC704700BF07
:10056C0000380240080000200024F40000127A0039
:10057C00FC0C000880B584B000AF00F00DF9012030
:10058C0000F018F90523FB6009E0FB68D9B20023E1
:10059C000122422000F062F9FB680133FB60FB682A
:1005AC00072BF2D9012300220321422000F056F937
:1005BC000023FB720023BB7205237B7206233B7264
:1005CC000723FB710321422000F036FB034603F0A6
:1005DC000103002B02D00023BB7212E0FB7A072B25
:1005EC0004D9BB7A002B01D10023FB72FB7A072BB9
:1005FC0007D8BB7A002B04D1FB7A0133FB720123A1
:10060C00BB72FB7A082B00F2C08001A252F823F0D7
:10061C0041060008670600088D060008B3060008AE
:10062C00D9060008FF060008250700084B0700083C
:10063C00710700087B7A00221946422000F04CFA20
:10064C003B7A00221946422000F046FAFB79002240
:10065C001946422000F040FA9CE07B7A01221946B0
:10066C00422000F039FA3B7A00221946422000F071
:10067C0033FAFB7900221946422000F02DFA89E06A
:10068C007B7A00221946422000F026FA3B7A01229E
:10069C001946422000F020FAFB790022194642202C
:1006AC0000F01AFA76E07B7A00221946422000F01C
:1006BC0013FA3B7A00221946422000F00DFAFB791E
:1006CC0001221946422000F007FA63E07B7A0122EE
:1006DC001946422000F000FA3B7A012219464220CA
:1006EC0000F0FAF9FB7900221946422000F0F4F9E7
:1006FC0050E07B7A01221946422000F0EDF93B7A5A
:10070C0000221946422000F0E7F9FB790122194634
:10071C00422000F0E1F93DE07B7A002219464220AC
:10072C0000F0DAF93B7A01221946422000F0D4F9A4
:10073C00FB7901221946422000F0CEF92AE07B7A9F
:10074C0001221946422000F0C7F93B7A01221946D2
:10075C00422000F0C1F9FB7901221946422000F039
:10076C00BBF917E07B7A00221946422000F0B4F95D
:10077C003B7A00221946422000F0AEF9FB790022A8
:10078C001946422000F0A8F904E00023FB72002374
:10079C00BB7200BF16E700BF80B400AF044B1B68F0
:1007AC00034A43F00103136000BFBD4680BC704791
:1007BC000038024080B485B000AF0346FB71FB7972
:1007CC005B09FB73FB7903F01F03BB73FB7B032BF0
:1007DC0036D801A252F823F0F50700080B080008E0
:1007EC002108000837080008184B1B68BA7B012148
:1007FC0001FA02F21146154A0B43136021E0144B27
:10080C001B68BA7B012101FA02F21146104A0B4314
:10081C00136016E00F4B1B68BA7B012101FA02F240
:10082C0011460C4A0B4313600BE00B4B1B68BA7B55
:10083C00012101FA02F21146074A0B43136000E052
:10084C0000BF00BF1437BD4680BC70473038024033
:10085C0034380240403802404438024090B482B0F0
:10086C0000AF0446084611461A462346FB71034660
:10087C00BB710B467B7113463B71FB79413B032BE0
:10088C0000F20C8101A252F823F000BFA908000865
:10089C0029090008A9090008290A0008824B1B68CD
:1008AC00BA795200032101FA02F2D24311467E4A70
:1008BC000B4013607C4B1B687979BA79520001FAB2
:1008CC0002F21146784A0B4313607B79002B17D048
:1008DC00012B21D1754B1B68BA79012101FA02F267
:1008EC00D2431146714A0B401360704B1B68397927
:1008FC00BA7901FA02F211466C4A0B4313600CE010
:10090C006B4B1B683979BA79520001FA02F2114625
:10091C00674A0B43136000E000BFC0E0654B1B68E7
:10092C00BA795200032101FA02F2D2431146614A0C
:10093C000B4013605F4B1B687979BA79520001FA4E
:10094C0002F211465B4A0B4313607B79002B17D0E4
:10095C00012B21D1584B1B68BA79012101FA02F203
:10096C00D2431146544A0B401360534B1B683979E0
:10097C00BA7901FA02F211464F4A0B4313600CE0AC
:10098C004E4B1B683979BA79520001FA02F21146C2
:10099C004A4A0B43136000E000BF80E0484B1B68E1
:1009AC00BA795200032101FA02F2D2431146444AA9
:1009BC000B401360424B1B687979BA79520001FAEB
:1009CC0002F211463E4A0B4313607B79002B17D081
:1009DC00012B21D13B4B1B68BA79012101FA02F2A0
:1009EC00D2431146374A0B401360364B1B6839799A
:1009FC00BA7901FA02F21146324A0B4313600CE049
:100A0C00314B1B683979BA79520001FA02F211465E
:100A1C002D4A0B43136000E000BF40E02B4B1B68DA
:100A2C00BA795200032101FA02F2D2431146274A45
:100A3C000B401360254B1B687979BA79520001FA87
:100A4C0002F21146214A0B4313607B79002B17D01D
:100A5C00012B21D11E4B1B68BA79012101FA02F23C
:100A6C00D24311461A4A0B401360194B1B68397953
:100A7C00BA7901FA02F21146154A0B4313600CE0E5
:100A8C00144B1B683979BA79520001FA02F21146FB
:100A9C00104A0B43136000E000BF00E000BF00BF32
:100AAC000837BD4690BC704700000240040002406D
:100ABC000C00024000040240040402400C040240FA
:100ACC0000080240040802400C080240000C0240DE
:100ADC00040C02400C0C024080B483B000AF0346FF
:100AEC00FB710B46BB7113467B714B4B1B68BA7980
:100AFC005200012101FA02F21340002B1DD1474B89
:100B0C001B68BA795200012101FA02F21340002B42
:100B1C0013D1434B1B68BA795200012101FA02F23E
:100B2C001340002B09D13F4B1B68BA7952000121AD
:100B3C0001FA02F21340002B66D0FB79413B032BE8
:100B4C0064D801A252F823F0650B0008910B000841
:100B5C00BD0B0008E90B0008334B1B68BA79012167
:100B6C0001FA02F2D24311462F4A0B4013602E4B6E
:100B7C001B687979BA7901FA02F211462A4A0B43B9
:100B8C00136044E0294B1B68BA79012101FA02F287
:100B9C00D2431146254A0B401360244B1B687979CC
:100BAC00BA7901FA02F21146204A0B4313602EE087
:100BBC001F4B1B68BA79012101FA02F2D24311468C
:100BCC001B4A0B4013601A4B1B687979BA7901FAEE
:100BDC0002F21146164A0B43136018E0154B1B68C2
:100BEC00BA79012101FA02F2D2431146114A0B40A3
:100BFC001360104B1B687979BA7901FA02F211462D
:100C0C000C4A0B43136002E000BF00E000BF00BFC2
:100C1C000C37BD4680BC7047000002400004024007
:100C2C0000080240000C0240140002401404024070
:100C3C0014080240140C024080B485B000AF034687
:100C4C000A46FB711346BB710023FB73FB79413BD6
:100C5C00032B3BD801A252F823F000BF790C0008FB
:100C6C00910C0008A90C0008C10C00081C4B1B6857
:100C7C00BA79012101FA02F21A40BB7922FA03F384
:100C8C00FB7326E0174B1B68BA79012101FA02F2BB
:100C9C001A40BB7922FA03F3FB731AE0124B1B6860
:100CAC00BA79012101FA02F21A40BB7922FA03F354
:100CBC00FB730EE00D4B1B68BA79012101FA02F2AD
:100CCC001A40BB7922FA03F3FB7302E00023FB7397
:100CDC0000BFFB7B18461437BD4680BC704700BF75
:100CEC00100002401004024010080240100C024098
:100CFC0000000000000000000102030406070809C0
:0C0D0C000C000020000000000024F40097
:040000050800019559
:00000001FF
