:020000040800F2
:1000000000000120050300080B030008110300088D
:1000100033030008390300085B03000800000000F8
:100020000000000000000000000000007D03000848
:100030008303000800000000890300088F03000804
:10004000AD030008AD030008AD030008AD030008D0
:10005000AD030008AD030008AD030008AD030008C0
:10006000AD030008AD030008AD030008AD030008B0
:10007000AD030008AD030008AD030008AD030008A0
:10008000AD030008AD030008AD0300080000000048
:10009000000000000000000000000000AD030008A8
:1000A000AD030008AD030008AD030008AD03000870
:1000B000AD030008AD030008AD030008AD03000860
:1000C000AD030008AD030008AD030008AD03000850
:1000D000AD030008AD030008AD03000800000000F8
:1000E000AD030008AD030008AD03000800000000E8
:1000F000000000000000000000000000AD03000848
:1001000000000000AD030008AD030008AD030008C7
:1001100000000000000000000000000000000000DF
:10012000AD030008AD030008AD030008AD030008EF
:10013000AD03000800000000000000000000000007
:10014000000000000000000000000000AD030008F7
:10015000AD030008AD030008AD030008AD030008BF
:10016000AD030008AD03000800000000000000001F
:10017000000000000000000000000000000000007F
:1001800000000000AD0300080000000000000000B7
:10019000AD03000880B596B000AF00F037F94F4BC3
:1001A0007B6524E07B6D1A1D7A651B683B647B6D63
:1001B0001A1D7A651B68FB637B6D1A1D7A651B68C7
:1001C000BB633B6C7B63FB6B3B63BB6BFB623B6B5F
:1001D000BB6207E07A6B131D7B63BB6A191DB962B2
:1001E00012681A60FA6ABB6A9A42F3D800BF7B6D44
:1001F0003B4A9342D6D33B4B3B651AE03B6D1A1DFD
:100200003A651B68BB643B6D1A1D3A651B687B64CD
:10021000BB6C7B627B6C3B627B6AFB6104E0FB69CD
:100220001A1DFA6100221A603A6AFB699A42F6D8EE
:1002300000BF3B6D2C4A9342E0D300F0F5F83A1D25
:1002400007F108031146184600F0CEF8274A284B5C
:10025000D31A9B103B610023FB6007E0244AFB6834
:1002600052F823309847FB680133FB603A69FB681A
:100270009A42F3DC1F4A204BD31A9B103B610023A8
:10028000FB6007E01C4AFB6852F823309847FB6884
:100290000133FB603A69FB689A42F3DC00BFBB683C
:1002A0007A681146184600F06BF9F864134A144B4B
:1002B000D31A9B10BB61BB697B6108E07B69013B82
:1002C0000F4A52F8233098477B69013B7B617B6979
:1002D000002BF3DC00BFF86C00F080F8B4030008DA
:1002E000CC030008CC030008DC030008DC03000892
:1002F000DC030008DC030008DC030008DC03000862
:10030000DC0300082548004700BF80B400AFFEE7CB
:100310001EF0040F0CBFEFF30880EFF30980714665
:100320001F4A104700BF80B483B000AF78603960C7
:10033000FEE780B400AFFEE71EF0040F0CBFEFF342
:100340000880EFF309807146164A104700BF80B459
:1003500083B000AF78603960FEE71EF0040F0CBF79
:10036000EFF30880EFF3098071460F4A104700BF92
:1003700080B483B000AF78603960FEE780B400AF2E
:10038000FEE780B400AFFEE780B400AFFEE780B4C4
:1003900000AF00BFBD4680BC70470000950100085B
:1003A000270300084F0300087103000880B400AF62
:0203B000FEE766
:1003B4002C0D0008000000200C0000202C0D00086B
:1003C40000000010000000100C00002010000020AD
:0803D400000000100000001001
:1003DC0080B582B000AF786000F03CF880B483B098
:1003EC0000AF786039607B6801221A603B68034A71
:1003FC001A6000BF0C37BD4680BC7047000000205F
:10040C0080B500AF00F02AF8024B034A9A6000BF97
:10041C0080BD00BF00ED00E00000000880B500AF1B
:10042C0000F028F800BF80BD80B400AFBFF34F8F41
:10043C0000BF064BDB6803F4E0620449044B134332
:10044C00CB60BFF34F8F00BF00BFFDE700ED00E0B6
:10045C000400FA0580B500AFFFF7E6FF80B400AFEB
:10046C00034B4FF000629A6000BFBD4680BC7047E2
:10047C0000ED00E080B487B000AF00233B610023A7
:10048C007B610223FB600023BB6002237B60344B47
:10049C009B6803F00C033B613B69082B11D03B6953
:1004AC00082B44D83B69002B03D03B69042B04D0A8
:1004BC003DE02C4B2C4A1A603DE02A4B2B4A1A602B
:1004CC0039E0274B5B689B0D03F00103BB60244BA9
:1004DC005B6803F03F037B60BB68002B0CD0234AA6
:1004EC007B68B2FBF3F31E4A52689209C2F308020E
:1004FC0002FB03F37B610BE01B4A7B68B2FBF3F35B
:10050C00174A52689209C2F3080202FB03F37B619B
:10051C00134B5B681B0C03F0030301335B00FB60A4
:10052C007A69FB68B2FBF3F30E4A136003E00D4BE0
:10053C000D4A1A6000BF0A4B9B681B0903F00F039E
:10054C000B4AD35C3B61074B1A683B6922FA03F3F5
:10055C00044A136000BF1C37BD4680BC704700BF07
:10056C0000380240080000200024F40000127A0039
:10057C001C0D000880B586B000AF00F005F9012015
:10058C0000F010F905237B6109E07B69D9B20023E7
:10059C000122422000F05AF97B6901337B617B69AF
:1005AC00072BF2D9012300220321422000F04EF93F
:1005BC0000233B610023FB730523FB710623BB71F6
:1005CC0007237B710321422000F03EFB0346002BE6
:1005DC0001D00023FB730023BB6002E0BB68013336
:1005EC00BB60BB68B3F57A5FF8DB0321422000F0F7
:1005FC002BFB0346002B02D00023FB7313E03B695B
:10060C00062B07DCFB7B002B04D13B6901333B61E0
:10061C000123FB733B69062B05DDFB7B002B02D111
:10062C004FF0FF333B613B69072B00F2AB8001A21B
:10063C0052F823F06106000887060008AD06000892
:10064C00D3060008F90600081F0700084507000834
:10065C006B070008FB7900221946422000F05EFA75
:10066C00BB7900221946422000F058FA7B7900220F
:10067C001946422000F052FA85E0FB790122194616
:10068C00422000F04BFABB7900221946422000F0C0
:10069C0045FA7B7900221946422000F03FFA72E0BD
:1006AC00FB7900221946422000F038FABB7901226E
:1006BC001946422000F032FA7B790022194642207A
:1006CC0000F02CFA5FE0FB7900221946422000F082
:1006DC0025FABB7900221946422000F01FFA7B79DB
:1006EC0001221946422000F019FA4CE0FB79012254
:1006FC001946422000F012FABB7901221946422019
:10070C0000F00CFA7B7900221946422000F006FA20
:10071C0039E0FB7901221946422000F0FFF9BB7940
:10072C0000221946422000F0F9F97B790122194682
:10073C00422000F0F3F926E0FB7900221946422012
:10074C0000F0ECF9BB7901221946422000F0E6F9E1
:10075C007B7901221946422000F0E0F913E0FB7985
:10076C0001221946422000F0D9F9BB790122194621
:10077C00422000F0D3F97B7901221946422000F087
:10078C00CDF900E000BF1DE780B400AF044B1B683F
:10079C00034A43F00103136000BFBD4680BC7047A1
:1007AC000038024080B485B000AF0346FB71FB7982
:1007BC005B09FB73FB7903F01F03BB73FB7B032B00
:1007CC0036D801A252F823F0E5070008FB07000811
:1007DC001108000827080008184B1B68BA7B012178
:1007EC0001FA02F21146154A0B43136021E0144B37
:1007FC001B68BA7B012101FA02F21146104A0B4325
:10080C00136016E00F4B1B68BA7B012101FA02F250
:10081C0011460C4A0B4313600BE00B4B1B68BA7B65
:10082C00012101FA02F21146074A0B43136000E062
:10083C0000BF00BF1437BD4680BC70473038024043
:10084C0034380240403802404438024090B482B000
:10085C0000AF0446084611461A462346FB71034670
:10086C00BB710B467B7113463B71FB79413B032BF0
:10087C0000F23C8101A252F823F000BF9908000855
:10088C0031090008C9090008610A00089A4B1B6865
:10089C00BA795200032101FA02F2D2431146964A68
:1008AC000B401360944B1B687979BA79520001FAAA
:1008BC0002F21146904A0B4313607B79002B17D040
:1008CC00012B2DD18D4B1B68BA79012101FA02F253
:1008DC00D2431146894A0B401360884B1B68397907
:1008EC00BA7901FA02F21146844A0B43136018E0FC
:1008FC00834B1B68BA795200032101FA02F2D243EE
:10090C0011467F4A0B4013607D4B1B683979BA79CD
:10091C00520001FA02F21146794A0B43136000E0CF
:10092C0000BFE4E0774B1B68BA795200032101FA4F
:10093C0002F2D2431146734A0B401360714B1B6891
:10094C007979BA79520001FA02F211466D4A0B43D9
:10095C0013607B79002B17D0012B2DD16A4B1B68B0
:10096C00BA79012101FA02F2D2431146664A0B40D0
:10097C001360654B1B683979BA7901FA02F211469A
:10098C00614A0B43136018E0604B1B68BA79520044
:10099C00032101FA02F2D24311465C4A0B40136068
:1009AC005A4B1B683979BA79520001FA02F2114696
:1009BC00564A0B43136000E000BF98E0544B1B6891
:1009CC00BA795200032101FA02F2D2431146504A7D
:1009DC000B4013604E4B1B687979BA79520001FABF
:1009EC0002F211464A4A0B4313607B79002B17D055
:1009FC00012B2DD1474B1B68BA79012101FA02F268
:100A0C00D2431146434A0B401360424B1B68397961
:100A1C00BA7901FA02F211463E4A0B43136018E010
:100A2C003D4B1B68BA795200032101FA02F2D24302
:100A3C001146394A0B401360374B1B683979BA7928
:100A4C00520001FA02F21146334A0B43136000E0E4
:100A5C0000BF4CE02E4B1B68BA795200032101FAFF
:100A6C0002F2D24311462A4A0B401360284B1B68F2
:100A7C007979BA79520001FA02F21146244A0B43F1
:100A8C0013607B79002B17D0012B2DD1214B1B68C8
:100A9C00BA79012101FA02F2D24311461D4A0B40E8
:100AAC0013601C4B1B683979BA7901FA02F21146B2
:100ABC00184A0B43136018E0174B1B68BA795200A5
:100ACC00032101FA02F2D2431146134A0B40136080
:100ADC00114B1B683979BA79520001FA02F21146AE
:100AEC000D4A0B43136000E000BF00E000BF00BFE5
:100AFC000837BD4690BC704700000240040002401D
:100B0C000C00024000040240040402400C040240A9
:100B1C0000080240040802400C08024080B483B074
:100B2C0000AF0346FB710B46BB7113467B71414B07
:100B3C001B68BA795200012101FA02F21340002B12
:100B4C0009D13D4B1B68BA795200012101FA02F21E
:100B5C001340002B66D0FB79413B032B64D801A2D8
:100B6C0052F823F0810B0008AD0B0008D90B0008DC
:100B7C00050C0008314B1B68BA79012101FA02F20D
:100B8C00D24311462D4A0B4013602C4B1B687979CC
:100B9C00BA7901FA02F21146284A0B43136044E079
:100BAC00274B1B68BA79012101FA02F2D243114694
:100BBC00234A0B401360224B1B687979BA7901FAEE
:100BCC0002F211461E4A0B4313602EE01D4B1B68AC
:100BDC00BA79012101FA02F2D2431146194A0B40AB
:100BEC001360184B1B687979BA7901FA02F2114635
:100BFC00144A0B43136018E0124B1B68BA7901219D
:100C0C0001FA02F2D24311460E4A0B4013600D4B0F
:100C1C001B687979BA7901FA02F21146094A0B4339
:100C2C00136002E000BF00E000BF00BF0C37BD4600
:100C3C0080BC7047000002400004024014000240D7
:100C4C00140402401408024080B483B000AF034681
:100C5C000A46FB711346BB71FB79413B032B4BD806
:100C6C0001A252F823F000BF850C0008A50C000867
:100C7C00C50C0008E50C0008224B1B68BA79012151
:100C8C0001FA02F21A40BB7922FA03F3012B01D1CB
:100C9C00012332E0002330E01B4B1B68BA790121A1
:100CAC0001FA02F21A40BB7922FA03F3012B01D1AB
:100CBC00012322E0002320E0144B1B68BA790121A8
:100CCC0001FA02F21A40BB7922FA03F3012B01D18B
:100CDC00012312E0002310E00C4B1B68BA790121B0
:100CEC0001FA02F21A40BB7922FA03F3012B01D16B
:100CFC00012302E0002300E0002318460C37BD4618
:100D0C0080BC7047100002401004024010080240E2
:100D1C00000000000000000001020304060708099F
:0C0D2C000C000020000000000024F40077
:040000050800019559
:00000001FF
